:0400000080312728FC
:100008007E1480310B1F09280A2825282100921DFB
:100018000E280F281A282000921D132814281A28A1
:100028002D088A002C080A00803125282100911DFE
:100038001E281F2825282000911D2328242825282C
:1000480014287E10090080312928F001F101F201FD
:10005800F301F401F50120308400003085001130EF
:100068008231802280317E10200080313B2881310E
:10007800E621803122000C1615302000B4004B30E8
:10008800B300BE30890B4628B30B4628B40B46286C
:1000980000008B170B170230823106228031813124
:1000A8007621803149302000B1000230B20082311F
:1000B800A4228031CF302000B1000130B20082315B
:1000C8008C2280318231E022803182316422803179
:1000D800003A031970287128692821001C0820009B
:1000E800B3003308AF0021001B082000B300330819
:1000F800AE007208031981288228D828031022002C
:100108000C1E0314031889288C2822000C168E282C
:1001180022000C1215302000B4004B30B300BE3062
:10012800890B9428B30B9428B40B9428000003106F
:1001380022000C1E03140318A228A52822000C165E
:10014800A72822000C12BA2822000E15D728220050
:100158000E11D72822000E14D72822000E10D728F7
:1001680022008E14D72822008E10D728720820006B
:10017800B300B4013408003A0319C328D728330858
:10018800013A0319A828033A0319AB28013A0319BD
:10019800AE28073A0319B128013A0319B428033ADB
:1001A8000319B728D728F201031022008C1E031464
:1001B8000318DF28E22822008C16E42822008C127B
:1001C80071080319E828E928F42803100C1E031401
:1001D8000318EF28F22822000C16F42822000C122B
:1001E80003302000B4000830B3007730890BFA28B8
:1001F800B30BFA28B40BFA28662880312728220086
:100208000C168231E6228131823179228131003A1D
:1002180003190F29102922298231CC228131003A71
:100228000319172918291D290130F8007808F30047
:100238005C290230F8007808F3005C298231CC226E
:100248008131003A031929292A292F290330F80076
:100258007808F3005C290430F8007808F3005C297A
:10026800823130228131823172228131003A031980
:100278003E293F2972298231162281317229823121
:10028800302281317229823172228131003A031978
:100298004E294F2972293F298231D9228131003ACA
:1002A8000319572958297229823123228131722949
:1002B8007308F800F9017908003A031964297229CA
:1002C8007808013A03193429033A03194329013AF2
:1002D80003194729073A0319502972298231E32261
:1002E800813108008131F6218131083082319E2226
:1002F80081317F3082319822813103302000B10072
:100308000130B2008231AA22813100302000B100D0
:100318000030B2008231B0228131C2302000B100F9
:100328000230B20082318C2281316B302000B10062
:100338000230B2008231A42281315C302000B10049
:100348000230B2008231B622813100302000B10083
:100358000030B2008231922281318231DD22813136
:10036800080022008C018D018E010F3021008C00C5
:10037800F0308D0030308E00CF3023008E002030DA
:100388008D0017308C0024008D018C0121009517F9
:1003980022009D0108007008031DD329D429DC29F7
:1003A80021001C088231BC228131F001F00AE229C7
:1003B80021001C088231BC228131F00122000C127C
:1003C800F101080082313D2281318131B52181312D
:1003D8008231862281318231D12281318231542287
:1003E800813108002400951AFA29FB29052A403092
:1003F800940006302000B1003108240095049601CD
:10040800951608002000B2003208B100B10DB10DF8
:1004180021001D08200031068339310621009D0086
:100428001D14080020002808290403191C2A1D2A65
:10043800222A29088A0028080A0082310800200098
:100448002A082B040319292A2A2A2F2A2B088A006A
:100458002A080A0082310800200026082704031908
:10046800362A372A3C2A27088A0026080A008231B9
:10047800080040302400940006302000B100310804
:10048800240095049601951208008231D522823104
:10049800F6007608F20022000C12F101F10A0800B9
:1004A80021009E019F019B019C0101309D000800D5
:1004B8008231E9228231F60076082000B000080077
:1004C800031021009D1C03140030093D08008231EF
:1004D800E9228231F6007608F400080003102400AF
:1004E800141C03140030093D080003102400941E56
:1004F80003140030093D0800640080010131890BB4
:10050800812A0034783021009900220096010800E1
:1005180020003208A9003108A8000800200032088D
:10052800A3003108A20008002000B10031352400E2
:10053800930008002000B100313524009200080023
:1005480020003208AB003108AA0008002000320859
:10055800AD003108AC00080020003208A5003108C1
:10056800A400080020003208A7003108A6000800EF
:10057800F70077088231C722823108007508823176
:10058800C72282310800F60076082400910008008E
:100598002400140C890C013908001630210097003A
:1005A80008008231E9228231080024001408013948
:1005B800080021009115080021009D14080024005E
:1005C80015160800200091110800240011080800E1
:020000040001F9
:04000E00E43FFF3F8D
:00000001FF
